:020000040800F2
:10000000A80400209D010008B90F0008370F000860
:10001000710F0008D50200083D1300080000000021
:10002000000000000000000000000000BD0F0008FC
:10003000D702000800000000BB0F0008BF0F000837
:10004000B7010008B7010008B7010008B7010008B0
:10005000B7010008B7010008B7010008B7010008A0
:10006000B7010008B7010008B7010008B701000890
:10007000B7010008B7010008B7010008B701000880
:10008000B7010008B7010008B7010008B701000870
:10009000B7010008B7010008B7010008B701000860
:1000A000B7010008B7010008B7010008B701000850
:1000B000B7010008B701000800000000B701000800
:1000C000B70100080000000000000000B7010008B0
:1000D00000000000B7010008B7010008B7010008E0
:1000E000B7010008B7010008000000000000000090
:1000F0000000000000000000000000000000000000
:1001000000000000000000000000000000000000EF
:100110000000000000000000B7010008B70100085F
:1001200000000000000000000000000000000000CF
:1001300000000000000000000000000000000000BF
:10014000B7010008B701000800000000000000002F
:10015000000000000000000000000000000000009F
:10016000000000000000000000000000000000008F
:10017000000000000000000000000000000000007F
:1001800000000000B7010008DFF80CD000F090F884
:1001900000480047F5160008A804002006488047DC
:1001A00006480047FEE7FEE7FEE7FEE7FEE7FEE75C
:1001B000FEE7FEE7FEE7FEE72110000889010008E0
:1001C0002DE9F05F0546002092469B46884606468C
:1001D000814640241BE0284641464746224600F01F
:1001E00020F853465A46C01A914110D3114618467A
:1001F000224600F04EF82D1A67EB01084F462246C2
:100200000120002100F045F817EB00094E41201EA7
:10021000A4F10104DFDC484631462A464346BDE8E6
:10022000F09F202A04DB203A21FA02F000217047D7
:1002300021FA02F3D040C2F120029140084319464E
:100240007047D2B201E000F8012B491EFBD2704783
:100250000022F6E710B513460A4604461946FFF792
:10026000F0FF204610BD30B50B460146002020228D
:10027000012409E021FA02F59D4205D303FA02F5B3
:10028000491B04FA02F52844151EA2F10102F1DC13
:1002900030BD202A04DB203A00FA02F1002070472A
:1002A0009140C2F1200320FA03F3194390407047B4
:1002B000064C074D06E0E06840F0010394E80700B3
:1002C00098471034AC42F6D3FFF762FFC01700081E
:1002D000E0170008FEE7704770B5044600F0E0F84C
:1002E0000546601C02D004480078044400F0D8F8A9
:1002F000401BA042FAD370BD080000202DE9FC4F3E
:10030000DFF884A1002301250AF1040B03244FF038
:100310000F0C0BF1040EB0E005FA03F73A406ED073
:100320004E68012E05D0022E03D0112E01D0122EC0
:1003300017D1D0F808905E0004FA06F829EA0809F7
:100340000096D1F80C8008FA06F848EA0908C0F8C7
:1003500008804668BE430F79C7F300179F403743B4
:100360004760C6684FEA430804FA08F7BE4301979E
:100370008F6807FA08F73743C7604E68022E01D02E
:10038000122E10D1DE0800EB86060096366A5F0753
:100390004FEAD7690CFA09F7BE430F6907FA09F764
:1003A0003743009E37620668019FBE430F7907F00E
:1003B000030707FA08F7374307604E68F6005BD576
:1003C000324EB76947F00107B761B66923F00307FA
:1003D00006F0010600962E4E3E44B146B6689F07D1
:1003E0004FEA17780CFA08F7BE43B0F1904F04D0EB
:1003F000284FB84204D101270DE000270BE03BE075
:10040000254FB84201D1022705E0244FB84201D15F
:10041000032700E0052707FA08F73743C9F80870F3
:10042000DAF800605746D1F8048096435FEAC8388E
:1004300000D516433E60DBF800605F46D1F80480CB
:1004400096435FEA883800D516433E60DEF80060C8
:100450007746D1F8048096435FEAC82800D5164352
:100460003E60094F0C373E68D1F8048096435FEA3E
:10047000882800D516433E605B1C0E683246DE407D
:100480007FF44AAFBDE8FC8F000401400010024039
:10049000000001400004004800080048000C00482B
:1004A0000148806870470000080000200248816809
:1004B000027811448160704708000020074810B599
:1004C000016841F010010160032000F05FF8002096
:1004D00000F006F800F024F8002010BD00200240D3
:1004E00070B50D4D04464FF47A712878B1FBF0F0E9
:1004F0000A490968B1FBF0F000F048FC48B9102C3B
:1005000007D200222146501E00F020F800206C6027
:1005100070BD012070BD0000080000201400002004
:10052000094808B5816941F001018161816901F0E3
:1005300001010091C16941F08051C161C06900F0C1
:100540008050009008BD000000100240F0B40E4B37
:100550001B680C46C3F30223C3F10705042D00D921
:100560000425191D072901D2002300E0DB1E012606
:1005700006FA05F1491E214099409E40761E16401C
:100580003143F0BC00F0F0BE0CED00E0064900F095
:10059000070208684FF6FF03184040EA0220034AAA
:1005A00010430860704700000CED00E00000FA0501
:1005B0002DE9F0470F46050069D04A4E306800F03B
:1005C0000700B84209D2306820F007003843306095
:1005D000306800F00700B84259D12878424C8007B3
:1005E00005D56068A96820F0F000084360602878AD
:1005F000C0073DD06968012001290DD0022923D010
:100600005FF0020393FAA3F2B2FA82F242F0200200
:10061000520904D0226803E04FF40033F2E7626A23
:1006200093FAA3F3B3FA83F303F01F039840024253
:100630002DD0606820F0030008436060FFF730FFB2
:10064000804641F288390CE04FF00073DAE700BFD2
:10065000FFF726FFA0EB0801494502D90320BDE8BA
:10066000F0876068696800F00C00B0EB810FEFD193
:10067000306800F00700B8420BD9306820F007005E
:1006800038433060306800F00700B84201D00120E4
:10069000E5E72878400705D56068E96820F4E06060
:1006A000084360602878000706D56068296920F44F
:1006B000605040EAC100606000F04EF86168F022CE
:1006C00092FAA2F201F0F001B2FA82F2D140074AA6
:1006D000515CC8400649086006480068FFF700FF03
:1006E0000020BCE70020024000100240A8170008CC
:1006F000140000200C0000200848094900684968DF
:100700004FF4E06292FAA2F201F4E061B2FA82F2EE
:10071000D140044A515CC8407047000014000020DA
:1007200000100240B81700080848094900684968E5
:100730004FF4605292FAA2F201F46051B2FA82F2DE
:10074000D140044A515CC8407047000014000020AA
:1007500000100240B8170008164A10B55168164834
:1007600001F00C03042B20D0082B1ED14FF4701481
:1007700094FAA4F401F47013B4FA84F4E3400F4C37
:10078000D26AE45C0F2393FAA3F302F00F02B3FAE8
:1007900083F3DA40094B1033C9039A5C06D5002372
:1007A0001946FFF70DFDA0FB040110BD0448A4FB92
:1007B000000110BD0010024000127A0088170008E6
:1007C00000093D002DE9F84F050071D02878FC4E56
:1007D000C0074FF0010425D070686704C0F38100A2
:1007E000012807D07068C0F3810002281BD170680F
:1007F000C00318D597FAA7F0B0FA80F040F02000B7
:10080000400901D0306800E0706A97FAA7F1B1FAA8
:1008100081F101F01F0104FA01F1084265D0686816
:100820000028D2D061E06868B0F5803F0BD010B1ED
:10083000B0F5A02F17D0306820F4803030603068D9
:1008400020F4802002E0306840F480303060F06AAC
:10085000A96820F00F000843F062686820B3FFF732
:100860001FFE80460AE0306840F480203060EAE7EE
:10087000FFF716FEA0EB0800642871D897FAA7F0DE
:10088000B0FA80F040F02000400901D0306800E06C
:10089000706A97FAA7F1B1FA81F101F01F0104FA29
:1008A00001F10842E4D020E0FFF7FAFD804607E0BE
:1008B000C2E000BFFFF7F4FDA0EB08006428DCD81D
:1008C00097FAA7F0B0FA80F040F02000400901D07C
:1008D000306800E0706A97FAA7F1B1FA81F101F08F
:1008E0001F0104FA01F10842E4D12878DFF8D4822C
:1008F00080074FF0000A4FF0020730D570684FF0C4
:10090000F80B10F00C0F07D07068C0F381000228BC
:1009100027D17068C00324D497FAA7F0B0FA80F00A
:1009200040F02000400901D0306800E0706A97FA7A
:10093000A7F1B1FA81F101F01F0104FA01F10842B7
:1009400002D02869012877D130689BFAABF220F0F9
:10095000F8016869B2FA82F29040014331605AE0CE
:1009600064E1286988B394FAA4F0B0FA80F048F8FA
:100970002040FFF795FD814606E000BFFFF790FDA0
:10098000A0EB090002289AD897FAA7F0B0FA80F0F5
:1009900040F02000400901D0306800E0706A97FA0A
:1009A000A7F1B1FA81F101F01F0104FA01F1084247
:1009B000E4D030689BFAABF26969B2FA82F220F0B7
:1009C000F80091400843306025E0FFE794FAA4F076
:1009D000B0FA80F048F820A0FFF762FD814605E0FC
:1009E000FFF75EFDA0EB09000228CCD897FAA7F02C
:1009F000B0FA80F040F02000400901D0306800E0FB
:100A0000706A97FAA7F1B1FA81F101F01F0104FAB7
:100A100001F10842E4D1287800076CD5A869A8B391
:100A200094FAA4F0B0FA80F008EB8000C0F880449B
:100A3000FFF736FD814607E0A4E100BFFFF730FD78
:100A4000A0EB090002289ED897FAA7F0B0FA80F030
:100A500040F06000B4EB501F01D130680BE097FA12
:100A6000A7F0B0FA80F040F06000B7EB501F01D162
:100A7000306A00E0706A97FAA7F1B1FA81F101F0EB
:100A80001F0104FA01F21042D8D034E0FFE794FAD3
:100A9000A4F1B1FA81F108EB8101C1F880A4FFF75C
:100AA000FFFC814606E000BFFFF7FAFCA0EB09005F
:100AB00002289AD897FAA7F0B0FA80F040F06000C8
:100AC000B4EB501F01D130680BE097FAA7F0B0FAF1
:100AD00080F040F06000B7EB501F01D1306A00E0B9
:100AE000706A97FAA7F1B1FA81F101F01F0104FAD7
:100AF00001F21042D8D12878400768D5F0694FF04C
:100B00000009C00009D4F06940F08050F061F0693C
:100B10004FF0010900F0805000902B480168C90592
:100B200012D4016841F480710160FFF7B9FC83467B
:100B300006E000BFFFF7B4FCA0EB0B00642875D8FB
:100B400021480068C005F5D5E86801280AD008B139
:100B5000052811D0306A20F001003062306A20F0A0
:100B6000040002E0306A40F001003062E86868B3D7
:100B7000FFF796FC83460DE0306A40F004003062D7
:100B8000F0E700BFFFF78CFCA0EB0B0141F28830CF
:100B900081424BD897FAA7F0B0FA80F040F04000BD
:100BA000B4EB501F01D1306813E097FAA7F0B0FA08
:100BB00080F040F04000B7EB501F09D1306A08E0E8
:100BC0000010024000004242007000400CE040E093
:100BD000706A97FAA7F1B1FA81F101F01F0104FAE6
:100BE00001F21042CED02DE0FFF75AFC834607E019
:100BF000FFF756FCA0EB0B0141F28830814215D87B
:100C000097FAA7F0B0FA80F040F04000B4EB501F24
:100C100001D130680CE097FAA7F0B0FA80F040F00C
:100C20004000B7EB501F02D1306A01E083E0706AE8
:100C300097FAA7F1B1FA81F101F01F0104FA01F26C
:100C40001042D5D1B9F1000F03D0F06920F08050E7
:100C5000F061E86980B37168C1F38101022977D03E
:100C60004FF080714F000228504609D091FAA1F14F
:100C7000B1FA81F148F82100FFF712FC05465DE06A
:100C8000894691FAA1F1B1FA81F1C24648F82100F2
:100C9000FFF706FC804605E0FFF702FCA0EB08002A
:100CA000022848D897FAA7F0B0FA80F040F0200068
:100CB000400902D0306801E066E0706A97FAA7F157
:100CC000B1FA81F101F01F0104FA01F10842E3D108
:100CD000D5E908100843716821F474110843706065
:100CE00099FAA9F0B0FA80F04AF82040FFF7D8FB53
:100CF000054604E0FFF7D4FB401B02281BD897FAF7
:100D0000A7F0B0FA80F040F02000400901D0306830
:100D100000E0706A97FAA7F1B1FA81F101F01F01C2
:100D200004FA01F10842E5D02EE000BFFFF7B8FB5E
:100D3000401B022802D90320BDE8F88F97FAA7F0DC
:100D4000B0FA80F040F02000400902D0306801E0A5
:100D50000BE0706A97FAA7F1B1FA81F101F01F0177
:100D600004FA01F10842E1D10EE00128E4D07068F4
:100D70002A6A00F48031914204D1696A00F470104B
:100D8000884201D00120D7E70020D5E710B5401EEA
:100D9000B0F1807F01D3012010BD4FF0E0246061ED
:100DA0000F21601700F0E0FA0020A0610720206109
:100DB000002010BD10B5040002D0A06F10B107E0F4
:100DC000012010BD002084F87400204600F026F8B1
:100DD0002420A0672068016821F0010101602046FD
:100DE00000F0B8F90128ECD0606A10B1204600F09C
:100DF0001FF92068416821F49041416020688168B2
:100E000021F02A0181602068016841F00101016040
:100E10002046BDE8104000F06FB9000010B586B064
:100E2000044614216846FFF713FA134920688842E4
:100E30001FD11248C16941F40031C161C16901F497
:100E400000310591416941F40031416140696946D1
:100E500000F4003005900C2000900220019000204A
:100E6000029003200390072004904FF09040FFF77A
:100E700045FA06B010BD00000044004000100240DA
:100E80002DE9F8430446806F1F4616460D4620287C
:100E90004FD1CDB1C6B194F87400012849D00120DA
:100EA00084F874004FF00008C4F880802120A06707
:100EB000FFF7F6FAA4F850608146A4F85260A068E3
:100EC000B0F5805F03D004E00120BDE8F88320691D
:100ED00028B12E465FF0000584F8748010E00026EB
:100EE000FAE78021204600F0D7F9B8B9C6B116F864
:100EF000010B21680885B4F85200401EA4F8520086
:100F0000B4F852004B464FF0000200970028E8D199
:100F10004FF04001204600F0BFF930B10320D4E784
:100F200035F8020BC0F30800E3E72020A06700209B
:100F3000CBE70220C9E7FEE70C4810B50A4901607B
:100F40004FF416514160002181600C22C160C0E95C
:100F500004128161C16101624162FFF72BFF002829
:100F600001D072B6FEE710BD00440040240000200E
:100F7000FEE7000000B58DB00B46024609A16846A9
:100F800000F0DEF982B24FF47A7369460848FFF741
:100F900077FF6423032207490548FFF771FF0DB06F
:100FA00000BD000025732E7478743D222573220045
:100FB0002400002000000020FEE770477047FFF784
:100FC00075BA30B58FB028216846FFF741F9142172
:100FD0000AA8FFF73DF90225012004900095102092
:100FE000059000244FF4E010CDE9084007956846CD
:100FF000FFF7E8FB08B172B6FEE70F20CDE90A055E
:101000004FF48060CDE90C4001210AA80E94FFF74F
:10101000CFFA002801D072B6FEE70FB030BD000055
:101020000248016841F470010160704788ED00E0FA
:1010300090F82410C90706D001684A68836A22F430
:1010400000321A434A6090F82410890706D50168D7
:101050004A68C36A22F480321A434A6090F8241026
:10106000490706D501684A68036B22F480221A43B7
:101070004A6090F82410090706D501684A68436B56
:1010800022F400421A434A6090F82410C90606D59B
:1010900001688A68836B22F480521A438A6090F850
:1010A0002410890606D501688A68C36B22F40052B1
:1010B0001A438A6090F82410490611D501684A68DD
:1010C000036C22F480121A434A60016CB1F5801F50
:1010D00006D101684A68436C22F4C0021A434A6090
:1010E00090F82410090606D501684A68806C22F43D
:1010F000002202434A607047F8B500260446C0F853
:101100008060FFF7CDF90546206800686FF07E47E4
:10111000000708D52B4600224FF400112046009707
:1011200000F0BAF860B92068006840070AD52B467D
:1011300000224FF480012046009700F0ADF808B17E
:101140000320F8BD2020A067E067266684F874605D
:101150000020F8BD70B5044680682169E269084343
:10116000616900251143226808431168444B194006
:101170000143116020684168E26821F44051114345
:101180004160A169206A084321688A6822F43062BC
:1011900002438A603B492068884210D13A48006B7C
:1011A00010F0030011D0012805D0022805D0032833
:1011B0000DD102210CE004210AE0082108E03349A6
:1011C000884202D03249884201D1002100E010213A
:1011D000E3694FF400422F484FF6EF76934227D150
:1011E000092941D2DFE801F005080E400B404040DC
:1011F0002200FFF781FA04E0FFF796FA01E0FFF71B
:10120000ABFA90B34100606801EB5001B1FBF0F024
:1012100080B2A0F11001B14226D84FF6F071014022
:10122000C0F3420001432068C16023E01046E9E7B3
:10123000092919D2DFE801F005080E180B18181853
:101240001A00FFF759FA04E0FFF76EFA01E0FFF722
:1012500083FA50B1616800EB5100B0FBF1F080B24D
:10126000A0F11001B14203D9012503E01046F1E7D6
:101270002168C86000206066A066284670BD000036
:10128000F369FFEF003801400010024000440040C5
:101290000048004000127A002DE9F0479A461746B0
:1012A0000E4604464FF000094FF02008089D39E033
:1012B000681C37D0FFF7F4F8A0EB0A00A84222D848
:1012C0000DB32068016849072CD5C069C0430005EB
:1012D00028D421684FF4006008622068016821F476
:1012E000D07101602068816821F001018160C4F83B
:1012F0007880C4F87C80C4F8808000BF84F8749043
:101300000320BDE8F0872068016821F4D0710160F6
:101310002068816821F001018160C4F87880C4F8F8
:101320007C80EBE72068C06936EA000004D000202A
:10133000B842BDD00020E4E70120F9E7FEE7000055
:101340000FB4084B10B504A902AA039800F02CF8BA
:10135000044602A9002000F0C8F9204610BC5DF840
:1013600014FB0000EB1600080907090E002804DB37
:1013700000F1E02080F80014704700F00F0000F149
:10138000E02080F8141D704702E008C8121F08C151
:10139000002AFAD170477047002001E001C1121FF6
:1013A000002AFBD1704700002DE9FF4F8BB0884623
:1013B0000546002606E025280BD0DDE90D129047F2
:1013C0006D1C761C28780028F5D10FB03046BDE89A
:1013D000F08F0024A146A2460122AE4900E004435A
:1013E00015F8013F203B02FA03F00842F7D12878B4
:1013F0002A2810D06FF02F022878A0F13001092997
:1014000015D809EB890102EB410144F0020400EB1D
:1014100001096D1CF0E758F8041B5FEA010903D5C8
:1014200044F40054C9F1000944F002046D1C28780A
:101430002E2817D115F8010F44F004042A280ED0E5
:101440006FF02F022878A0F1300109290AD80AEBA1
:101450008A0102EB410100EB010A6D1CF2E758F82A
:1014600004AB6D1C28786C280FD006DC4C2817D0F4
:1014700068280DD06A2814D104E0742810D07A2886
:101480000FD10DE044F400140AE044F4801401E0AC
:1014900044F440146978814202D104F580146D1C33
:1014A0006D1C2878692865D006DC00288DD063285B
:1014B00027D0642806D15DE06E2808D073282AD092
:1014C000752877D0DDE90D129047761CE0E0C4F373
:1014D0000250022809D003280DD0D8F800100428A3
:1014E0000DD00E6008F10408D2E0D8F80010F21711
:1014F000C1E90062F6E7D8F800100E80F2E70E703E
:10150000F0E718F8041B8DF8001000208DF801009A
:10151000EB46012003E058F804BB4FF0FF306107B1
:101520004FF0000701D40AE07F1C57450DDA8742CF
:10153000FADB1BF807100029F6D106E07F1C874272
:10154000FCDB1BF807100029F8D1DDE90D23A9EB1E
:1015500007008146214600F0B1F83044C61904E086
:10156000DDE90D121BF8010B90477F1EF8D22146D2
:10157000484688E058F8040BC4F302514FF00A0BB8
:10158000032900D100B2042900D140B2002802DAB8
:1015900040422D2102E0210505D52B218DF8241094
:1015A000012104E006E0E10710D02021F6E708AFB2
:1015B000089113E058F8040BC4F302514FF00A0BE2
:1015C000032900D180B2042900D1C0B20021EEE786
:1015D0005946FEF748FE303107F8011D0028F7D1C3
:1015E000ADEB070000F1200B600702D524F4803436
:1015F00001E04FF0010ADA4502DDAAEB0B0000E042
:101600000020824600EB0B0108980144A9EB010081
:101610000A90E00306D4DDE90D2321460A9800F084
:101620004DF806444FF0000908E009A911F8090037
:10163000DDE90D12904709F10109761C08998945E9
:10164000F3DBE0030CD5DDE90D2321460A9800F019
:1016500035F8064404E0DDE90D1230209047761C91
:10166000BAF10001AAF1010AF5DC05E0DDE90D128D
:1016700017F8010B9047761CBBF10001ABF1010B91
:10168000F4DC0A982146DDE90D2300F005F8064454
:101690006D1C97E6092801002DE9F041044600255C
:1016A0001E461746880404D405E039462020B0477A
:1016B0006D1C641EF9D52846BDE8F0812DE9F04186
:1016C000044600251E469046C80301D5302700E099
:1016D0002027880404D505E041463846B0476D1CF4
:1016E000641EF9D52846BDE8F0810A68531C0B60DA
:1016F0001070704708B5FEF7E1FEFFF762FC1A486C
:10170000416941F480014161416901F48001009126
:10171000416941F400314161406900F400300090BA
:10172000FFF70AFC4FF47A742046FEF7D5FD0FA1AF
:1017300011A0FFF71FFC2046FEF7CEFD0F4D00263F
:101740000FA110486A68FFF7FBFD0E490AA0FFF7DA
:1017500011FC2046FEF7C0FD6868401C6860A0428E
:10176000EED16E60ECE70000001002404869206492
:1017700069636B210000000074300000000000204D
:10178000256400001800002002030405060708096C
:101790000A0B0C0D0E0F10100102030405060708BA
:1017A000090A0B0C0D0E0F100000000000000000D5
:1017B00001020304060708090000000001020304F7
:1017C000E01700080000002018000000881300083F
:1017D000F817000818000020900400009813000873
:1017E000FFFFFF00000000000100000010000000EB
:0817F0000000000000127A0065
:040000050800018965
:00000001FF
